{
  "_format": "hh-sol-artifact-1",
  "contractName": "UserDetails",
  "sourceName": "contracts/UserDetails.sol",
  "abi": [
    {
      "inputs": [],
      "name": "deleteDriverLocation",
      "outputs": [],
      "stateMutability": "nonpayable",
      "type": "function"
    },
    {
      "inputs": [],
      "name": "getAllDriverDetails",
      "outputs": [
        {
          "internalType": "address[]",
          "name": "",
          "type": "address[]"
        },
        {
          "internalType": "string[]",
          "name": "",
          "type": "string[]"
        }
      ],
      "stateMutability": "view",
      "type": "function"
    },
    {
      "inputs": [],
      "name": "retrieveDriverInformation",
      "outputs": [
        {
          "internalType": "string",
          "name": "",
          "type": "string"
        },
        {
          "internalType": "uint256",
          "name": "",
          "type": "uint256"
        },
        {
          "internalType": "string",
          "name": "",
          "type": "string"
        }
      ],
      "stateMutability": "view",
      "type": "function"
    },
    {
      "inputs": [
        {
          "internalType": "address",
          "name": "driverAddress",
          "type": "address"
        }
      ],
      "name": "retrieveSpecificDriver",
      "outputs": [
        {
          "internalType": "string",
          "name": "",
          "type": "string"
        },
        {
          "internalType": "uint256",
          "name": "",
          "type": "uint256"
        }
      ],
      "stateMutability": "view",
      "type": "function"
    },
    {
      "inputs": [],
      "name": "retrieveUserInformation",
      "outputs": [
        {
          "internalType": "string",
          "name": "",
          "type": "string"
        },
        {
          "internalType": "uint256",
          "name": "",
          "type": "uint256"
        }
      ],
      "stateMutability": "view",
      "type": "function"
    },
    {
      "inputs": [
        {
          "internalType": "string",
          "name": "_name",
          "type": "string"
        },
        {
          "internalType": "uint256",
          "name": "_phoneNumber",
          "type": "uint256"
        }
      ],
      "name": "setDriverInformation",
      "outputs": [],
      "stateMutability": "nonpayable",
      "type": "function"
    },
    {
      "inputs": [
        {
          "internalType": "string",
          "name": "_location",
          "type": "string"
        }
      ],
      "name": "setDriverLocation",
      "outputs": [],
      "stateMutability": "nonpayable",
      "type": "function"
    },
    {
      "inputs": [
        {
          "internalType": "string",
          "name": "_name",
          "type": "string"
        },
        {
          "internalType": "uint256",
          "name": "_phoneNumber",
          "type": "uint256"
        }
      ],
      "name": "setUserInformation",
      "outputs": [],
      "stateMutability": "nonpayable",
      "type": "function"
    }
  ],
  "bytecode": "0x608060405234801561001057600080fd5b50610e05806100206000396000f3fe608060405234801561001057600080fd5b50600436106100885760003560e01c8063815229981161005b57806381522998146100ee578063923f94cd14610101578063e0e6a69114610114578063e3d6987e1461011c57600080fd5b80630ca11da81461008d5780631066b78214610097578063536f4a04146100b7578063612b5d30146100cd575b600080fd5b61009561012f565b005b61009f61028e565b6040516100ae93929190610cd5565b60405180910390f35b6100bf6103f8565b6040516100ae929190610c12565b6100e06100db366004610b13565b6105c1565b6040516100ae929190610cb3565b6100956100fc366004610b80565b61073a565b61009561010f366004610b43565b6107c4565b6100e0610899565b61009561012a366004610b80565b610965565b336000908152600160205260408120600201805461014c90610d21565b905011156101845760408051602080820180845260008084523381526001909252929020905161018292600290920191906109ed565b505b60005b60025481101561028b57336001600160a01b0316600282815481106101ae576101ae610da3565b6000918252602090912001546001600160a01b0316141561027957600280546101d990600190610d0a565b815481106101e9576101e9610da3565b600091825260209091200154600280546001600160a01b03909216918390811061021557610215610da3565b9060005260206000200160006101000a8154816001600160a01b0302191690836001600160a01b03160217905550600280548061025457610254610d8d565b600082815260209020810160001990810180546001600160a01b031916905501905550565b8061028381610d5c565b915050610187565b50565b336000908152600160205260408082208151606081810190935281549293928492849291829082906102bf90610d21565b80601f01602080910402602001604051908101604052809291908181526020018280546102eb90610d21565b80156103385780601f1061030d57610100808354040283529160200191610338565b820191906000526020600020905b81548152906001019060200180831161031b57829003601f168201915b505050505081526020016001820154815260200160028201805461035b90610d21565b80601f016020809104026020016040519081016040528092919081815260200182805461038790610d21565b80156103d45780601f106103a9576101008083540402835291602001916103d4565b820191906000526020600020905b8154815290600101906020018083116103b757829003601f168201915b50505091909252505081516020830151604090930151909792965094509092505050565b606080600060028054905067ffffffffffffffff81111561041b5761041b610db9565b60405190808252806020026020018201604052801561044e57816020015b60608152602001906001900390816104395790505b50905060005b6002548110156105585760006002828154811061047357610473610da3565b60009182526020808320909101546001600160a01b0316808352600190915260409091206002018054919250906104a990610d21565b80601f01602080910402602001604051908101604052809291908181526020018280546104d590610d21565b80156105225780601f106104f757610100808354040283529160200191610522565b820191906000526020600020905b81548152906001019060200180831161050557829003601f168201915b505050505083838151811061053957610539610da3565b602002602001018190525050808061055090610d5c565b915050610454565b50600281818054806020026020016040519081016040528092919081815260200182805480156105b157602002820191906000526020600020905b81546001600160a01b03168152600190910190602001808311610593575b5050505050915092509250509091565b606060008060016000856001600160a01b03166001600160a01b0316815260200190815260200160002060405180606001604052908160008201805461060690610d21565b80601f016020809104026020016040519081016040528092919081815260200182805461063290610d21565b801561067f5780601f106106545761010080835404028352916020019161067f565b820191906000526020600020905b81548152906001019060200180831161066257829003601f168201915b50505050508152602001600182015481526020016002820180546106a290610d21565b80601f01602080910402602001604051908101604052809291908181526020018280546106ce90610d21565b801561071b5780601f106106f05761010080835404028352916020019161071b565b820191906000526020600020905b8154815290600101906020018083116106fe57829003601f168201915b5050505050815250509050806000015181602001519250925050915091565b6706f05b59d3b200003331101561078f5760405162461bcd60e51b8152602060048201526014602482015273496e73756666696369656e742062616c616e636560601b60448201526064015b60405180910390fd5b3360009081526020818152604090912083516107ad928501906109ed565b503360009081526020819052604090206001015550565b33600090815260016020908152604090912082516107ea926002909201918401906109ed565b506000805b60025481101561084c57336001600160a01b03166002828154811061081657610816610da3565b6000918252602090912001546001600160a01b0316141561083a576001915061084c565b8061084481610d5c565b9150506107ef565b508061089557600280546001810182556000919091527f405787fa12a823e0f2b7631cc41b3ba8828b3321ca811111fa75cd3aa3bb5ace0180546001600160a01b031916331790555b5050565b33600090815260208190526040808220815180830190925280546060939283929091829082906108c890610d21565b80601f01602080910402602001604051908101604052809291908181526020018280546108f490610d21565b80156109415780601f1061091657610100808354040283529160200191610941565b820191906000526020600020905b81548152906001019060200180831161092457829003601f168201915b50505091835250506001919091015460209182015281519101519094909350915050565b6706f05b59d3b20000333110156109b55760405162461bcd60e51b8152602060048201526014602482015273496e73756666696369656e742062616c616e636560601b6044820152606401610786565b33600090815260016020908152604090912083516109d5928501906109ed565b50336000908152600160208190526040909120015550565b8280546109f990610d21565b90600052602060002090601f016020900481019282610a1b5760008555610a61565b82601f10610a3457805160ff1916838001178555610a61565b82800160010185558215610a61579182015b82811115610a61578251825591602001919060010190610a46565b50610a6d929150610a71565b5090565b5b80821115610a6d5760008155600101610a72565b600082601f830112610a9757600080fd5b813567ffffffffffffffff80821115610ab257610ab2610db9565b604051601f8301601f19908116603f01168101908282118183101715610ada57610ada610db9565b81604052838152866020858801011115610af357600080fd5b836020870160208301376000602085830101528094505050505092915050565b600060208284031215610b2557600080fd5b81356001600160a01b0381168114610b3c57600080fd5b9392505050565b600060208284031215610b5557600080fd5b813567ffffffffffffffff811115610b6c57600080fd5b610b7884828501610a86565b949350505050565b60008060408385031215610b9357600080fd5b823567ffffffffffffffff811115610baa57600080fd5b610bb685828601610a86565b95602094909401359450505050565b6000815180845260005b81811015610beb57602081850181015186830182015201610bcf565b81811115610bfd576000602083870101525b50601f01601f19169290920160200192915050565b604080825283519082018190526000906020906060840190828701845b82811015610c545781516001600160a01b031684529284019290840190600101610c2f565b50505083810382850152845180825282820190600581901b8301840187850160005b83811015610ca457601f19868403018552610c92838351610bc5565b94870194925090860190600101610c76565b50909998505050505050505050565b604081526000610cc66040830185610bc5565b90508260208301529392505050565b606081526000610ce86060830186610bc5565b8460208401528281036040840152610d008185610bc5565b9695505050505050565b600082821015610d1c57610d1c610d77565b500390565b600181811c90821680610d3557607f821691505b60208210811415610d5657634e487b7160e01b600052602260045260246000fd5b50919050565b6000600019821415610d7057610d70610d77565b5060010190565b634e487b7160e01b600052601160045260246000fd5b634e487b7160e01b600052603160045260246000fd5b634e487b7160e01b600052603260045260246000fd5b634e487b7160e01b600052604160045260246000fdfea264697066735822122049b0947f00f38d05419c708bd1493c4531c1d1886147adf803128b7e6077f8d064736f6c63430008070033",
  "linkReferences": {},
  "deployedLinkReferences": {}
}